:020000040800F2
:10000000A00F002005010008EB26000823240008AB
:10001000E9260008410B0008052F00080000000039
:100020000000000000000000000000001B2B000882
:100030007B0B000800000000192B00081D2B000896
:100040001F0100081F0100081F0100081F01000810
:100050001F0100081F0100087D0B0008830B00082A
:100060001F0100081F0100081F010008450B0008C0
:100070001F0100081F0100081F0100081F010008E0
:100080001F0100081F0100081F0100081F010008D0
:100090001F0100081F0100081F0100081F010008C0
:1000A0001F0100081F0100081F0100081F010008B0
:1000B0001F0100081F0100081F0100081F010008A0
:1000C0001F0100081F0100081F0100081F01000890
:1000D0001F0100081F0100081F0100081F01000880
:1000E0001F0100081F0100081F010008DFF810D0E1
:1000F00000F046FC0048004789380008AFF3008054
:10010000A00F00200648804706480047FEE7FEE7AC
:10011000FEE7FEE7FEE7FEE7FEE7FEE7FEE7FEE7B7
:10012000992B0008ED0000082DE9F05F054600203E
:1001300092469B4688460646814640241BE0284658
:1001400041464746224600F02FF853465A46C01A09
:10015000914110D311461846224600F016F82D1A88
:1001600067EB01084F4622460120002100F00DF800
:1001700017EB00094E41201EA4F10104DFDC4846C4
:1001800031462A464346BDE8F09F202A04DB203A48
:1001900000FA02F1002070479140C2F1200320FADA
:1001A00003F3194390407047202A04DB203A21FAD8
:1001B00002F00021704721FA02F3D040C2F1200280
:1001C0009140084319467047202A06DBCB17203A96
:1001D00041FA02F043EAE07306E041FA02F3D0404C
:1001E000C2F120029140084319467047D2B201E0A3
:1001F00000F8012B491EFBD270470022F6E710B52C
:1002000013460A4604461946FFF7F0FF204610BD84
:10021000F0B480EA0102D40F4200B2EB410F02D2E7
:100220000246084611464A0042D0C30DDDB2C1F372
:10023000C752AD1A202D35DAC1F3160141F4000280
:1002400004B15242C5F1200602FA06F12A411044D7
:10025000B3EBD05F23D0C4B1012DA0EBC35009DCB8
:10026000F0BC4FF0004202EAC352DBB200F50000DE
:1002700000F0E3BA400000F1807000EBC350A0F141
:10028000807040EAD170490009E0490841EAC07134
:10029000A0EBC35000F50000400800EBC350F0BCD9
:1002A00000F0C2BA6142012202EB4101001BF6E7F5
:1002B000F0BC704781F00041AAE780F00040A7E75A
:1002C00080EA010210B502F00043400022D04A004B
:1002D0001FD0010E01EB1261C0F35600C2F35602AB
:1002E00040F4000042F40002A0FB022000047F3929
:1002F000140400D0401C50EA124001D44000491EB2
:10030000C2B20C0604EBD010401C4008802A02D078
:1003100003E0002010BD20F00100002900DA0020D9
:10032000184310BD30B480EA010202F0004530F0FD
:10033000004221F0004013D090B1C30DD40DC2F3A0
:100340001601C0F31600E41A41F4000140F4000263
:100350007D34914201D3641C00E04900002C02DA94
:1003600030BC002070474FF400000023914201D3BD
:10037000891A034340084FEA4101F7D151B1914234
:1003800002D14FF0004105E002D24FF0010101E03F
:100390006FF0010103EBC450284430BC00F044BAB4
:1003A0002DE9FE4F804681EA0300C00F0C46009005
:1003B00021F0004123F00045B8EB0200A94105D22D
:1003C0004046214690461C460B46024623F000401C
:1003D000104347D0270DC7F30A00C3F30A51029018
:1003E000401A019040286BDAC3F3130040F4801BDD
:1003F0000098924620B10023D2EB030A63EB0B0B6B
:1004000001985946C0F140025046FFF7BEFE06462D
:100410000D4650465946019AFFF7D6FE10EB0800EC
:100420006141002487EA115284EAE7731A4340D0FD
:10043000009A62B3019A012A4FEA075215DC001BA9
:1004400061EB02014FF0004202EA0752CDE900429F
:10045000001C41F5801132462B4600F02BFA03B008
:10046000BDE8F08F40462146F9E7001B61EB020131
:10047000001C41F5801300185B412018A2F50017FD
:1004800047EB030140EAD570B6196D4111E06D08E4
:100490004FEA360645EAC0754FEA0752001B61EB8A
:1004A0000201001C41F5801149084FEA3000001993
:1004B000514132462B4603B0BDE8F04F00F0EBB996
:1004C0000098012240000023D0EB020263EBE073AE
:1004D000009821464FEAE074B8EB000061EB04019C
:1004E000E9E783F000435BE781F0004158E72DE93D
:1004F000FE4F81EA030404F0004421F0004100941F
:100500004FF0000B23F0004350EA01045ED052EAA2
:1005100003045BD0C3F30A54C1F30A552C44A4F27C
:10052000F3340194A0FB0254C1F3130141F4801190
:10053000C3F3130343F4801301FB024400FB034E97
:10054000840A970A44EA815447EA8357A4FB076860
:1005500002958D0A05FB07854FEA932C04FB0C548A
:100560002705029D4FEA065847EA1637B5EB0805FE
:100570006EEB070C870E920E47EA811742EA831250
:10058000A7FB0201B6EB0B0164EB00042B0D43EA61
:100590000C335E1844EB1C50DA465146E7FB02016F
:1005A000C5F313044FEA0B3343EA14534FEA043202
:1005B000019C43EA0603A4F10C040294009CCDE9DB
:1005C00000B400F077F903B0BDE8F08F00200146D9
:1005D000F9E72DE9F04D81EA030404F0004B21F026
:1005E000004514464FF0000A23F0004150EA05028E
:1005F00020D054EA01021DD0C5F30A570246C5F3C4
:100600001303C1F31300C1F30A5640F4801543F4F9
:100610008013A7EB0608101BD64608F2FD3873EBD3
:10062000050002D308F1010801E092185B41B8F11E
:10063000000F03DA00200146BDE8F08D00204FF4E2
:100640008011064684460EE0171B73EB050705D3A1
:10065000121B63EB050306434CEA010C49084FEA01
:10066000300092185B4150EA0107EDD152EA0300D5
:1006700012D082EA040083EA0501084305D0101B6A
:10068000AB4106D20122002306E000224FF00043D6
:1006900002E06FF0010253101AEB06004CEB085118
:1006A00010EB0A0041EB0B01BDE8F04D00F0F3B890
:1006B00070B521F0004303430CD0C1F30A55002468
:1006C000D5EB040564EB0403D617AD1AB34102DB86
:1006D0000020014670BD201841EB025170BDC10FD2
:1006E00080EAE0700844CA079623002100F0A5B80C
:1006F00096230022114600F0A0B80EB5C10F80EA83
:10070000E0700844CA07002140F233438DE80E0030
:100710000A460B4600F0CEF803B000BD20F00040C2
:10072000C10DC0F3160040F400007F2901DA00205B
:100730007047962903DCC1F19601C840704796398D
:100740008840704700F0004230F000400AD0C10DF0
:1007500001F56071C0F3160042EA0151C20840077A
:1007600011437047002001467047000030B5041E59
:1007700071F1000404DB4FF00044404264EB0101DE
:10078000141E73F1000405DB1C464FF00043524277
:1007900063EB0403994208BF904230BD01F000436F
:1007A00030B421F0004150EA010206D00A0DA2F552
:1007B0006072C1F31301002A02DC30BC00207047D4
:1007C000440F44EAC104C100E01830BC00EBC25041
:1007D00000F02AB8002801DBC0F10040002901DB4D
:1007E000C1F1004181427047002801DBC0F10040A7
:1007F000002901DBC1F100418842704730B50B464A
:10080000014600202022012409E021FA02F59D4240
:1008100005D303FA02F5491B04FA02F52844151E14
:10082000A2F10102F1DC30BD0029A8BF7047401CD5
:10083000490008BF20F00100704710B4B0FA80FCF6
:1008400000FA0CF050EA010404BF10BC704749B133
:10085000CCF1200421FA04F411FA0CF118BF0121A3
:1008600021430843A3EB0C01CB1D4FEA00614FEA83
:10087000102042BF002010BC704700EBC350104452
:100880000029A4BF10BC7047401C490008BF20F0DD
:10089000010010BC704710B5141E73F1000408DA93
:1008A000401C41F1000192185B411A4301D120F034
:1008B000010010BD2DE9F04D92469B4611B1B1FAF1
:1008C00081F202E0B0FA80F220329046FFF75DFC40
:1008D00004460F4640EA0A0041EA0B0153465A46D5
:1008E000084313D0114653EA010019D0C8F1400261
:1008F0005046FFF759FC05460E46504659464246BB
:10090000FFF743FC084305D0012004E020463946A8
:10091000BDE8F08D0020054346EAE0762C433743DE
:100920000A986305E40AA0EB08000022FD0A44EAE5
:1009300047540A3002D500200146E9E701051019A5
:100940006941DDE9084500196941BDE8F04DA2E7BC
:10095000C1F30A52C1F3130140F2FF3341F4801195
:100960009A4202DA00200146704740F233439A422D
:10097000A2F2334202DC5242FFF716BCFFF705BC7D
:10098000064C074D06E0E06840F0010394E80700DC
:1009900098471034AC42F6D3FFF7ACFB0C49000883
:1009A0002C49000870B58C1810F8015B15F007038E
:1009B00001D110F8013B2A1106D110F8012B03E0F8
:1009C00010F8016B01F8016B5B1EF9D12B0705D400
:1009D0000023521E0DD401F8013BFAE710F8013B49
:1009E000CB1A921C03E013F8015B01F8015B521E65
:1009F000F9D5A142D8D3002070BD000070B50446DF
:100A000000688168C943C90717D1816821F00101D5
:100A1000816000F053FD05460AE000BF00F04EFD86
:100A2000401B022804D920688068C043C00706D054
:100A300020688068C043C007F0D0002070BDA06A65
:100A400040F01000A062E06A40F00100E062012086
:100A500070BD10B50146406A826A12F0500F05D091
:100A6000006A026BBDE8104008461047816A41F4F5
:100A70000071816201688968C1F3424107290CD184
:100A8000017B51B9816A21F480718162816AC90454
:100A900003D4816A41F00101816200F061F910BD67
:100AA00010B5406A816A41F040018162C16A41F03B
:100AB0000401C16200F05BF910BD10B5406A00F09E
:100AC00055F910BDF8B50026044600960068816807
:100AD000C943C9072DD0816841F0010181601648E2
:100AE00016490068B0FBF1F000E0401E00900028BD
:100AF000FBD100F0E3FC054616E000BF00F0DEFC91
:100B0000401B022810D920688068C043C0070BD062
:100B1000A06A40F01000A062E06A40F00100E062CC
:100B200084F824600120F8BD20688068C043C007B5
:100B3000E4D10020F8BD00001000002040420F006A
:100B4000FEE70000014800F06FBA0000000400203A
:100B500030B590F840500124AC40C56B6C6004681F
:100B600063604368102B036803D099600068C2601B
:100B700030BD9A600068C16030BD7047012000F050
:100B800097BB022000F094BB72B6FEE7F8B50025D3
:100B90000446009590F8240001280BD0012084F829
:100BA00024002046FFF72AFF2046FFF78BFF0600B0
:100BB00002D050E00220F8BDA06A20F4885040F036
:100BC0000200A062022000F017FD25490968B1FB70
:100BD000F0F0400000E0401E00900028FBD12068AB
:100BE000816841F00801816000F068FC074608E078
:100BF00000F064FCC01B0A2803D920688068000745
:100C000015D4206880680007F2D42068816841F01C
:100C10000401816000F052FC074612E000F04EFC37
:100C2000C01B0A280DD920688068400709D5A06A32
:100C300020F0020040F01000A06284F8245001204F
:100C4000F8BD206880684007E8D4A06A20F0020060
:100C500040F00100A06284F824503046F8BD000046
:100C600010000020F8B50024009490F824202546B8
:100C7000012A12D0012280F824204A681F23072A63
:100C80000DD20668776B521E02EB820293409F439F
:100C90000B6893401F43776319E00220F8BD066894
:100CA0000D2A0AD2376BD21F02EB820293409F4378
:100CB0000B6893401F43376309E0F76A0D3A02EB74
:100CC000820293409F430B6893401F43F7620A6878
:100CD000072306680A2A0AD3F7680A3A02EB420297
:100CE00093409F438B6893401F43F76008E0376948
:100CF00002EB420293409F438B6893401F4337614E
:100D00000A68102A01D0112A20D1124B02689A4297
:100D100017D193681B0219D4936843F400039360BE
:100D20000968102912D10C490C4A0968B1FBF2F18B
:100D300001EB8101490000E0491E00910029FBD12F
:100D400004E0816A41F020018162012480F824508E
:100D50002046F8BD002401401000002040420F0052
:100D6000014901200870704700000020704770475B
:100D70002DE9F0414FF0000704003D467ED0A06A07
:100D8000002628B9E66284F82460204600F07EF848
:100D90002046FFF733FEA16AC90600D420B1A06A3D
:100DA00040F01000A06269E0A16A21F4885141F08E
:100DB0000201A1626268E169237B0A4347EA4301B9
:100DC0000A43A1684FF48077B94209D0012907D0BE
:100DD0005FF0000194F814C0BCF1010F02D00AE0EA
:100DE0003946F7E7F3B1A36A43F02003A362E36A4D
:100DF00043F00103E3622368D3F804C02CF4694C88
:100E00004CEA010CC3F804C021688B68DFF870C09D
:100E100003EA0C0313438B60A168B9420BD001298C
:100E200009D00CE0DFF85CC0A3690CEB43330B4343
:100E300043F40061DFE7218A0D05A5F580152168DF
:100E4000CB6A23F470032B43CB62216889680E4B75
:100E50001940914208D1E662A16A21F0020141F0F5
:100E60000101A162BDE8F081A06A20F0020040F01B
:100E70001000A062E06A40F00100E0620120F1E7AA
:100E8000FDF7E1FF00E0FFFFFE0E1FFF70B586B02B
:100E900000250646009501950295039500681A49BC
:100EA00088422ED11949886940F4007088618869A8
:100EB00000F400700490886940F00400886188693B
:100EC000694600F004000490042000900320019083
:100ED0000F4800F0F9F9104C0E48C4E900058020D5
:100EE000C4E90250400020618000C4E90505C0004B
:100EF000E061204600F042F908B1FFF745FE346298
:100F0000666206B070BD000000240140001002407F
:100F10000008014008000240000400202DE9F047CD
:100F2000894604463B4900683B4F0E1D9046884267
:100F300001D0B84207D1306810F4702F03D00125DA
:100F40002846BDE8F08794F8240001280CD0012041
:100F500084F824002046FFF7B5FD05004FF000009F
:100F600004D084F82400EBE70220EAE7A16A40F607
:100F70000162914341F48071A1622168B94218D1A4
:100F8000326812F4702F14D0A16A41F48011A1626A
:100F90003168490505D5A16A21F4005141F4805119
:100FA000A162A16AC9040AD5E16A21F00601E162E1
:100FB00006E0A26A22F48012A2624968E9E7E062D0
:100FC00084F82400216A15488862216A1448C8629E
:100FD000216A1448086321686FF0020008602068E5
:100FE000816841F480718160216843464A464C31F2
:100FF000206A00F0F1F820688168C1F342410729B6
:10100000816803D041F48011816099E741F4A00127
:10101000FAE700000024014000280140530A0008BC
:10102000BB0A0008A10A00082DE9F05FC16B0C683B
:1010300001680B68D0F840C0042202FA0CF2494D56
:10104000DFF824A1494E4A4FDFF828B1DFF828E144
:1010500022422CD05A072AD50A68920603D40A687D
:1010600022F004020A600168A94201D1042219E0B9
:10107000514501D1402215E0B14202D14FF48062C6
:1010800010E0B94202D14FF480420BE0594502D141
:101090004FF4802206E0714502D14FF4800201E056
:1010A0004FF080622F4908394A60C16A3BE04FF037
:1010B000020808FA0CF818EA040F4FF000094FF084
:1010C000010235D05FEA837832D50B689B0605D4E0
:1010D0000B6823F00A030B6080F821200168A94205
:1010E00001D1022219E0514501D1202215E0B1427F
:1010F00002D14FF4007210E0B94202D14FF4005215
:101100000BE0594502D14FF4003206E0714502D19F
:101110004FF4001201E04FF00072124908394A60A2
:1011200080F82090816A00291AD0BDE8F05F084756
:10113000082505FA0CF5254212D01B0710D50B68BF
:1011400023F00E030B6090F84010C36B02FA01F11C
:101150005960826380F8212080F82090016BE2E7DB
:10116000BDE8F09F080002401C0002403000024031
:1011700044000240580002406C00024030B528B3E1
:1011800008C8134914221944B1FBF2F18900C16364
:1011900010498163022141771A6843F6F0718A434E
:1011A000D0E900142143D0E902452C4321430469CE
:1011B000214344692143846921431143196000217B
:1011C0004163012242770177084630BD012030BDDE
:1011D000F8FFFDBF0000024070B5044690F8200003
:1011E000002501280CD0012084F8200094F821600B
:1011F0000020012E06D084F820000225284670BD6C
:10120000022070BD022684F82160A0632068066871
:1012100026F0010606602046FFF79AFCE06A0028E7
:101220002068016802D041F00E0106E021F00401BF
:1012300001602068016841F00A01016020680168CE
:1012400041F001010160D9E770B5044600F036F9BC
:101250000546601C02D004480078044400F02EF9D2
:10126000401BA042FAD370BD0400002070B50A20D4
:10127000FFF7EAFF0C4D0221284600F015F90B4C50
:1012800028B96178491C6170A078401CA0700121C8
:10129000284600F009F9002805D16078401E6070EA
:1012A000A078401EA07070BD000C0140000000201E
:1012B000044910B50A68024202D00860FFF7D6FF61
:1012C00010BD0000140401402DE9F84FDFF8B8917B
:1012D0000024A9F1040B23460F2709F1040AABF1FE
:1012E000040EC9E00125A5402A40AA427DD1674EDF
:1012F000D1F804C0ACEB0608B44532D014DCBCF124
:10130000030F3AD009DCBCF1000F2AD0BCF1010F69
:101310001CD0BCF1020F31D11DE0BCF1110F17D070
:10132000BCF1120F2AD119E0B8F5881F19D006DCDC
:10133000B8F5803F15D0B8F5801F1FD111E0B8F582
:10134000001F0ED0B8F5041F18D10AE0CB6815E0D5
:10135000CB681B1D12E0CB6808330FE0CB680C3361
:101360000CE08B682BB1012B4FF0080303D04561D3
:1013700004E0042302E0056100E00023FF2A01D815
:10138000064601E000F104064FEA840501D9A5F103
:101390002005D6F8008007FA05FC28EA0C0803FAB5
:1013A00005F548EA0508C6F800804D68ED0062D5ED
:1013B000374DAE6946F00106AE61AD6924F0030613
:1013C00005F001050095334D06EB050CDCF80850DF
:1013D000A607360F07FA06F825EA0805DFF8B880F1
:1013E000404503D14FF0000817E044E0DFF8AC803F
:1013F000404502D14FF001080FE0DFF8A4804045DE
:1014000002D14FF0020808E0DFF89880404502D191
:101410004FF0030801E04FF0040808FA06F848EA24
:101420000508CCF808804D68D9F80060ED024D46FB
:1014300001D5164300E096432E604D68DAF800604F
:10144000AD02554601D5164300E096432E604D6827
:10145000DBF80060AD035D4601D5164300E096431E
:101460002E604D68DEF80060ED03754601D5164329
:1014700000E096432E60641C0D682A46E5407FF428
:1014800031AFBDE8F88F00000804014000001110E2
:10149000001002400000014000080140000C014023
:1014A00000100140001401408068084000D0012075
:1014B00070470AB1016170470904FBE70148806881
:1014C000704700000400002002488168027811443F
:1014D0008160704704000020074810B5016841F0A2
:1014E00010010160032000F075F8012000F006F8FB
:1014F00000F024F8002010BD0020024070B50D4D12
:1015000004464FF47A712878B1FBF0F00A49096873
:10151000B1FBF0F000F0A4FB48B9102C07D2002278
:101520002146501E00F036F800206C6070BD01208E
:1015300070BD000004000020100000200C4808B519
:10154000816941F001018161816901F0010100912E
:10155000C16941F08051C161C06900F080500090C4
:101560000448416821F0E06141F00071416008BD2C
:101570000010024000000140002809DB00F01F02BB
:10158000012191404009800000F1E020C0F80011E5
:1015900070470000F0B40E4B1B680C46C3F30223E7
:1015A000C3F10705042D00D90425191D072901D20F
:1015B000002300E0DB1E012606FA05F1491E21404A
:1015C00099409E40761E16403143F0BC01F0BEBCEF
:1015D0000CED00E0064900F0070208684FF6FF0333
:1015E000184040EA0220034A104308607047000098
:1015F0000CED00E00000FA0510B501460020234C78
:10160000012922D0022939D010291DD16168226810
:10161000D20119D51E48C1F38342C903805C0AD5A3
:1016200061681B4AC1F34041921E515C194AB2FBEA
:10163000F1F1484301E0184948436168490203D485
:1016400040000321B0FBF1F010BD226AC2F301217A
:10165000012903D1920701D5C80310BD022905D184
:10166000626A920702D549F6404010BD0329FCD1B9
:1016700021688903F9D54FF2244010BD00F02AF902
:101680006168C1F38131491C4900DBE70010024069
:10169000BA3B000800127A0000093D002DE9F8432A
:1016A00005460078354CC00754D0E0690026C000DC
:1016B00008D4E06940F08050E061E069012600F064
:1016C000805000902E480168C90512D401688046F8
:1016D00041F480710160FFF7F1FE074605E000BFAD
:1016E000FFF7ECFEC01B642823D8D8F80000C00523
:1016F000F6D5206A10F4407021D0A98801F4407119
:1017000081421CD0206A1F49012220F440700A60E7
:1017100000220A602062C00711D0FFF7CFFE074603
:1017200041F2883808E000BFFFF7C8FEC11B414501
:1017300002D90320BDE8F883206A8007F4D5206A27
:10174000696820F44070084320621EB1E06920F00F
:101750008050E0612878800705D56068A96820F48A
:101760004040084360602878C00605D56068E96895
:1017700020F48000084360600020DBE70010024096
:1017800000700040400442422DE9F0470F4605003A
:1017900061D0434E306800F00700B84209D230688B
:1017A00020F0070038433060306800F00700B8428E
:1017B00051D128683B4C810712D5400703D560689A
:1017C00040F4E06060602878000703D5606840F46A
:1017D000605060606068A96820F0F00008436060B5
:1017E0002878C00728D06868012810D0216802280E
:1017F00010D0890700292EDA616821F00301014326
:101800006160FFF75BFE804641F288390DE0216898
:101810008903EFE78901EDE7FFF750FEA0EB080130
:10182000494502D90320BDE8F0876068696800F087
:101830000C00B0EB810FEFD1306800F00700B84228
:101840000BD9306820F0070038433060306800F072
:101850000700B84201D00120E5E72878400705D508
:101860006068E96820F4E060084360602878000759
:1018700006D56068296920F4605040EAC1006060C4
:1018800000F038F86168084AC1F30311515CC840A0
:101890000649086006480068FFF730FE0020C2E7EE
:1018A0000020024000100240CA3B00081000002047
:1018B000080000200448054900684968044AC1F34B
:1018C0000221515CC8407047100000200010024007
:1018D000DA3B00080448054900684968044AC1F336
:1018E000C221515CC8407047100000200010024027
:1018F000DA3B00080E4A51680E4801F00C03042B35
:1019000011D0082B0FD10C48C1F38343C903C05C2D
:101910000AD55168084AC1F34041921E515C054AFC
:101920005043B0FBF1F07047044948437047000052
:101930000010024000127A00A83B000800093D0098
:101940002DE9F84F040070D02078C04DC00749D071
:101950006868C0F38100012807D06868C0F381007F
:10196000022809D16868C00306D52868800339D5E4
:1019700060680028E7D035E06068B0F5803F0BD0A4
:1019800010B1B0F5A02F11D0286820F48030286065
:10199000286820F4802002E0286840F48030286025
:1019A000606890B1FFF78AFD06460AE0286840F4B7
:1019B00080202860F0E700BFFFF780FD801B6428CF
:1019C00073D828688003F7D50CE0FFF777FD06464B
:1019D00005E000BFFFF772FD801B6428F0D828687F
:1019E0008003F7D420789A4E80074FF001094FF01A
:1019F000000839D5686810F00C0F07D06868C0F38C
:101A00008100022809D16868C00306D428688007CD
:101A100014D52069012808D110E02069B0B1C6F8BA
:101A20000090FFF74BFD074605E00AE1FFF746FD92
:101A3000C01B0228C4D828688007F7D528686169C8
:101A400020F0F80040EAC10028600DE0C6F80080F0
:101A5000FFF734FD074604E0FFF730FDC01B022806
:101A600023D828688007F7D4207800072CD5794838
:101A7000A169D9B1C0F80090FFF720FD074604E046
:101A8000FFF71CFDC01B02280FD8686A8007F7D536
:101A900071484FF4FA510068B0FBF1F0009000BFBC
:101AA0000098411E0091FAD20EE080E0C0F800805C
:101AB000FFF704FD074604E0FFF700FDC01B022806
:101AC00075D8686A8007F7D42078400760D5E86940
:101AD0000027C00008D4E86940F08050E861E86958
:101AE000012700F0805000905C480168C90513D4BC
:101AF0000168834641F480710160FFF7DFFC824694
:101B000006E000BFFFF7DAFCA0EB0A0064284ED81D
:101B1000DBF80000C005F5D5E06801280AD008B15F
:101B2000052813D0286A20F001002862286A20F0D6
:101B3000040002E0286A40F001002862E06841F2F7
:101B4000883B98B1FFF7BAFC82460BE0286A40F068
:101B500004002862EEE700BFFFF7B0FCA0EB0A012B
:101B600059455AD8286A8007F6D50CE0FFF7A6FC3D
:101B7000824605E0FFF7A2FCA0EB0A0159454CD8CC
:101B8000286A8007F6D41FB1E86920F08050E86128
:101B9000E06988B36968C1F38101022944D0022851
:101BA000C6F8608004D0FFF789FC044638E034E0D2
:101BB000FFF784FC074604E0FFF780FCC01B022807
:101BC0002BD828688001F7D4206AB0F5803F05D172
:101BD0006868A16820F4003008436860D4E908010F
:101BE0000843696821F4741108436860C6F860907E
:101BF000FFF764FC044606E025E000BFFFF75EFC4B
:101C0000001B022809D828688001F7D51BE000BF17
:101C1000FFF754FC001B022802D90320BDE8F88F0F
:101C200028688001F4D40EE00128F7D06868226AA1
:101C300000F48031914204D1616A00F4701088424E
:101C400001D00120EAE70020E8E700000010024090
:101C50000000424280044242100000200070004018
:101C600010B5401EB0F1807F01D3012010BD4FF0B0
:101C7000E02460610F21601701F068F90020A06185
:101C800007202061002010BD10B590F83C20012AEB
:101C900022D0012280F83C20CA688C6822F440726D
:101CA00022434C6822F4806222430C6822F40062D2
:101CB00022430C6922F4805222434C6922F40052E0
:101CC0002243C969002322F480420A4301684A641E
:101CD00080F83C30002010BD022010BD70B590F897
:101CE0003C20012A26D0012480F83C40022280F8C2
:101CF0003D2003685A689D6822F070060A683243E6
:101D00005A600D4B02689A4208D0B2F1804F05D05C
:101D10000A4B9A4202D00A4B9A4204D1496825F0F4
:101D200080031943916080F83D40002180F83C1009
:101D3000084670BD022070BD002C01400004004028
:101D40000008004010B5040003D094F83D0010B125
:101D500007E0012010BD002084F83C00204600F080
:101D60001FF8022084F83D00211D206800F016FFB6
:101D7000012084F8460084F83E0084F83F0084F88F
:101D8000400084F8410084F8420084F8430084F85D
:101D9000440084F8450084F83D00002010BD000098
:101DA00008B50068B0F1804F08D10548C16941F01D
:101DB0000101C161C06900F00100009008BD000090
:101DC0000010024090F83D10012901D00120704719
:101DD000022180F83D1000680B49884208D0B0F11C
:101DE000804F05D00949884202D00949884204D170
:101DF000816801F00701062903D0016841F0010163
:101E00000160002070470000002C014000040040E9
:101E10000008004070B5044690F83C0000250128F9
:101E200017D0012684F83C60022084F83D00206829
:101E3000826822F0770222F47F428260086850288C
:101E400038D00DDC20284FD005DC90B3102811D1FC
:101E50004AE0022070BD302846D040280AD13BE03D
:101E600060282FD070280DD0B0F5805F03D0B0F57A
:101E7000005F12D0012584F83D60002084F83C000A
:101E8000284670BDCB68D1E90121206800F0C9FE69
:101E90002068816841F0770109E0CB68D1E9012130
:101EA000206800F0BEFE2068816841F480418160B6
:101EB000E1E719E0CA684968206800F067FF50212F
:101EC000206806E0CA684968206800F070FF602159
:101ED000206800F0B0FECEE7CA684968206800F0CC
:101EE00055FF40212068F4E7226801461046F0E7DC
:101EF00000B585B0002100910191029103911A4B28
:101F000002681A4802219A4211D1826942F0040201
:101F100082618069039100F004000490C801CDE95A
:101F2000000169461248FFF7CFF905B000BDB2F1D4
:101F3000804FFAD1826942F0080282618069039180
:101F400000F0080004900820CDE900016946094826
:101F5000FFF7BAF90848416821F4407141F0E061A7
:101F600041F480714160E0E7002C01400010024024
:101F700000080140000C01400000014070B504461B
:101F800090F83C00002501280FD0012084F83C0087
:101F90006AB1042A0FD0082A11D00C2A13D00125C7
:101FA000002084F83C00284670BD022070BD2068E7
:101FB00000F04AFEF4E7206800F06EFEF0E72068CB
:101FC00000F096FEECE7206800F0BEFEE8E710B5F2
:101FD000040003D094F83D0010B107E0012010BDCB
:101FE000002084F83C00204600F01EF8022084F80F
:101FF0003D00211D206800F0D1FD012084F846003D
:1020000084F83E0084F83F0084F8400084F84100E2
:1020100084F8420084F8430084F8440084F84500C2
:1020200084F83D00002010BD7047000010B5044644
:10203000022249B104290ED0082913D094F8410096
:10204000012816D0012010BD94F83E000128F9D1D6
:1020500084F83E200FE094F83F000128F2D184F884
:102060003F2008E094F840000128EBD184F840209C
:1020700001E084F841200122206800F0C5FD0F49ED
:102080002068884203D1426C42F4004242642068D6
:10209000884208D0B0F1804F05D00949884202D06B
:1020A0000849884204D1816801F00701062903D05C
:1020B000016841F001010160002010BD002C0140C9
:1020C000000400400008004070B5044690F83C0051
:1020D00000260D4601280FD0012084F83C006AB18B
:1020E000042A1DD0082A2FD00C2A3FD00126002018
:1020F00084F83C00304670BD022070BD206800F0BE
:10210000A3FD2068816941F008018161206881692F
:1021100021F004018161206881692A69114311E07D
:10212000206800F0B9FD2068816941F40061816197
:102130002068816921F480618161206881692A6950
:1021400041EA02218161D2E7206800F0D1FD2068D8
:10215000C16941F00801C1612068C16921F0040131
:10216000C1612068C1692A69114311E0206800F04B
:10217000EBFD2068C16941F40061C1612068C1695B
:1021800021F48061C1612068C1692A6941EA0221A4
:10219000C161ACE710B5040003D094F83D0010B164
:1021A00007E0012010BD002084F83C00204600F02C
:1021B0001FF8022084F83D00211D206800F0EEFC8D
:1021C000012084F8460084F83E0084F83F0084F83B
:1021D000400084F8410084F8420084F8430084F809
:1021E000440084F8450084F83D00002010BD000044
:1021F00008B500680649884208D10648816941F45B
:1022000000618161806900F40060009008BD0000F9
:10221000002C01400010024010B50446022249B1D2
:1022200004290ED0082913D094F84100012816D0B3
:10223000012010BD94F83E000128F9D184F83E2019
:102240000FE094F83F000128F2D184F83F2008E025
:1022500094F840000128EBD184F8402001E084F894
:1022600041200122206800F0CFFC0F4920688842FD
:1022700003D1426C42F4004242642068884208D094
:10228000B0F1804F05D00949884202D00849884200
:1022900004D1816801F00701062903D0016841F0EB
:1022A00001010160002010BD002C0140000400402D
:1022B0000008004070B5040004D094F841000025E7
:1022C00010B106E0012070BD84F84050204600F0B7
:1022D00023F8242084F841002068C16821F40051CB
:1022E000C160204600F076FD2068016921F490412C
:1022F00001612068416921F02A0141612068C168BB
:1023000041F40051C1606564202084F8410084F8E4
:1023100042006563002070BD30B585B00024009494
:1023200001940294039400681449884224D114480B
:10233000816941F480418161816901F480410491A6
:10234000816941F00401816180690E4D00F0040053
:1023500004904FF40070009002200190032003903D
:1023600069462846FEF7B0FF2815CDE90004694606
:1023700028460294FEF7A8FF05B030BD00380140A2
:1023800000100240000801402DE9F843044690F88F
:1023900041001F4616460D46202802D00220BDE807
:1023A000F8837DB176B100206064212084F841007B
:1023B000FFF784F8A6848046E684A068B0F5805FC5
:1023C00002D003E00120EAE7206910B12E46002583
:1023D0000EE000260CE08021204600F057FDA0B959
:1023E000AEB116F8010B21684860E08C401EE08415
:1023F000E08C43464FF0000200970028EBD14FF0ED
:102400004001204600F042FD30B10320C7E735F817
:10241000020BC0F30800E6E7202084F8410000200A
:10242000BDE7FEE73EB500241148009401940294F4
:102430000E498460016001250573047505614FF440
:10244000C0214460C161FEF793FC08B1FEF79CFB1C
:102450000220CDE90005694602940548FEF702FC1A
:10246000002801D0FEF790FB3EBD00000024014093
:10247000D0030020094808B5416941F001014161DC
:102480004069002200F00100009003210B20FFF7BB
:1024900081F8BDE808400B20FFF76EB8001002403D
:1024A0002DE9F04786B000252D480095019502954D
:1024B0000395816941F020018161816901F020016A
:1024C0000491816941F004018161816901F0040195
:1024D0000491816941F0080181618069DFF884908D
:1024E00000F008000490002201214846FEF7E1FFB9
:1024F000DFF874A04FF44078002241465046FEF7C2
:10250000D8FF012401AA02260327009482E8D00004
:1025100069464846FEF7D8FE14480097CDE9010405
:1025200069465046FEF7D0FE01AACDF8008082E849
:10253000700069465046FEF7C7FE002202210620C1
:10254000FFF728F80620FFF717F8002202210720DE
:10255000FFF720F80720FFF70FF806B0BDE8F08777
:102560000010024000080140000C01400000211052
:1025700010B592B000240F941C2108A81094FDF708
:102580003CFE20216846FDF738FE21481F490160C6
:102590004721C0E9011440F2E731C0E90314446166
:1025A0008461FFF7F7FD08B1FEF7EEFA0F940FA96B
:1025B00017481094FFF792FB08B1FEF7E5FA602088
:1025C00008904FF4FA70CDE909040B940C940D9423
:1025D000002208A90E480E94FFF776FD08B1FEF719
:1025E000D3FA00944FF40050CDE9044002940194D2
:1025F0000394694606480794FFF746FB08B1FEF7C7
:10260000C3FA0348FFF774FC12B010BD002C014060
:102610004404002010B58EB0002407940894099457
:102620000A940B941C2168460C94FDF7E6FD1F48A4
:102630004FF0804101604721C0E9011440F2E731C9
:10264000C0E903148461FFF77DFB08B1FEF79CFA33
:102650004FF48050079007A91448FFF7DBFB08B13F
:10266000FEF792FA1148FFF7B2FC08B1FEF78CFAB8
:102670000B940BA90D480C94FFF730FB08B1FEF743
:1026800083FA302000904FF4FA70CDE9010404225F
:10269000694606480494FFF771FC08B1FEF774FA26
:1026A0000248FFF725FC0EB010BD00008C0400208E
:1026B0000C4810B50A4901604FF4164141600021F1
:1026C00081600C22C160C0E904128161C161FFF721
:1026D000F1FD002803D0BDE81040FEF755BA10BD4B
:1026E00000380140D4040020FEE7FEE72DE9F04168
:1026F0000024104F2646002104F1B00000F087F9B5
:102700000021084600F083F90021102000F07FF935
:1027100000250121002000F07AF907EBC5006D1CAF
:10272000EDB20655802DF4D3641CE4B2082CE2D33C
:10273000BDE8F0819C05002010B500218D2000F03F
:1027400066F90021142000F062F90021BDE8104074
:10275000AF2000F05CB9000030B57F2810D83F29C9
:102760000ED8CB080124084D01F007018C4005EB81
:10277000C000012A05D0002A02D1C15CA143C15486
:1027800030BDC15C2143FAE79C05002070B50122F1
:102790000B4D140221462846FEF78BFE01225602FD
:1027A00031462846FEF785FE002231462846FEF7D0
:1027B00080FE21462846BDE870400022FEF779BE23
:1027C000000C014070B5094C012211022046FEF7B1
:1027D00070FE6515002229462046FEF76AFE29464E
:1027E0002046BDE870400122FEF763BE000C0140A8
:1027F00070B50122064D140221462846FEF759FE07
:1028000021462846BDE870400022FEF752BE000077
:10281000000C014010B56420FEF716FD0021AE202B
:1028200000F0F5F80021084600F0F1F80021102032
:1028300000F0EDF80021402000F0E9F80021B02080
:1028400000F0E5F80021812000F0E1F80021FF20F0
:1028500000F0DDF80021A12000F0D9F80021A62029
:1028600000F0D5F80021A82000F0D1F800213F2089
:1028700000F0CDF80021C82000F0C9F80021D320D5
:1028800000F0C5F80021084600F0C1F80021D5206D
:1028900000F0BDF80021802000F0B9F80021D82018
:1028A00000F0B5F80021052000F0B1F80021D92092
:1028B00000F0ADF80021F12000F0A9F80021DA20A5
:1028C00000F0A5F80021122000F0A1F80021DB2083
:1028D00000F09DF80021302000F099F800218D20B3
:1028E00000F095F80021142000F091F80021AF20AD
:1028F00000F08DF86420FEF7A7FCBDE81040FFF75C
:10290000F5BE000070B50B4E00242146002000F0FB
:1029100013F8002506EBC5000121005D00F077F8F3
:102920006D1CEDB2802DF5D3641CE4B2082CECD301
:1029300070BD00009C05002010B50A460446002129
:1029400002F1B00000F063F8102040EA14100021FA
:1029500000F05DF804F00F00BDE81040002100F029
:1029600056B800002DE9FF4F203A8A468346D0B280
:10297000184900EB400000244FF6FF7901EB800876
:1029800008EB44000025417818F814000BEB04070D
:1029900001EB002086B2300416D5039890B10022D6
:1029A0000AEB0500C1B2F8B2FFF7D6FE6D1CEDB21E
:1029B00009EA46060C2DEED3641CE4B2062CDFD3E4
:1029C000BDE8FF8F0122EBE70AEB0500C1B2F8B2C8
:1029D000039AE9E7FA4300082DE9F04198461746C3
:1029E0000E46044600250DE0434631462046FFF7DB
:1029F000B9FFA41DE4B2782C02D900240C36F6B23B
:102A00006D1CADB27A5D002AEED1BDE8F081C0B296
:102A100009B100F048B800F02FB800002DE9F041EE
:102A2000144F04464FF48076002231463846FEF7B4
:102A300040FD00254FF4007804F08000802816D077
:102A4000002241463846FEF734FD6006040E01229E
:102A500031463846FEF72DFD002231463846FEF756
:102A600028FD6D1CEDB2082DE6D3BDE8F0810122F2
:102A7000E7E70000000C014010B50446FFF786FEB2
:102A80007820FFF7CBFFFFF7B3FE0020FFF7C6FF6C
:102A9000FFF7AEFE2046FFF7C1FFFFF7A9FEBDE836
:102AA0001040FFF78FBE10B50446FFF76FFE782089
:102AB000FFF7B4FFFFF79CFE4020FFF7AFFFFFF7E3
:102AC00097FE2046FFF7AAFFFFF792FEBDE81040F1
:102AD000FFF778BE0FB42DE9F0410D4C17460AAA56
:102AE000884605462260261F0A48099900F01CFA0C
:102AF00080B2084A30800021216011542B463946AB
:102B00004046FFF769FFBDE8F0015DF814FB0000E7
:102B1000180000201C05002070477047FEF7D4BC49
:102B200030B593B028216846FDF767FB14210AA849
:102B3000FDF763FB002501200F9510951195010409
:102B400012958DE8230004904FF4E010CDE90810B1
:102B5000022407946846FEF7F3FE08B172B6FEE75A
:102B60000AA90F2081E831004FF48060CDE90D05FE
:102B700002210AA8FEF708FE08B172B6FEE74FF47C
:102B8000004011900F940FA8FEF788FD002801D097
:102B900072B6FEE713B030BD70470000F0B50268B2
:102BA000164B174C174D4FF08047984205D0B8424E
:102BB00003D0A04201D0A84203D122F070064A6897
:102BC0003243984205D0B84203D0A04201D0A84277
:102BD00003D122F44074CA6822434C6922F0800277
:102BE000224302608A68C2620A688262984201D106
:102BF0000969016301214161F0BD0000002C014021
:102C0000000400400008004010B501F01F0301213E
:102C1000046A99408C430462016A9A40114301623C
:102C200010BD10B5846842EA032224F47F440A43AD
:102C30002243826010BD826822F070020A4342F093
:102C4000070181607047000030B5036A026A22F014
:102C5000010202624268846924F073050C682C4307
:102C600023F002058B682B430A4DA8420BD123F0B9
:102C70000805CB6822F440722B434D6923F004030E
:102C800015438A692A43426084614968416303624B
:102C900030BD0000002C014030B5026A036A23F009
:102CA00010030362436884690D6824F4E64444EA2F
:102CB00005248D6822F0200242EA05120B4DA8423D
:102CC0000ED1CD6822F0800242EA05124D6923F44C
:102CD000406343EA85038D6922F0400243EA85039D
:102CE0004360846149688163026230BD002C014009
:102CF00030B5036A026A22F4807202624268C469D3
:102D000023F4007324F073050C682C438D6843EAA8
:102D100005230C4DA8420ED1CD6823F4006343EA8D
:102D200005234D6922F4405242EA05128D6923F4CD
:102D3000806342EA05124260C4614968C16303626C
:102D400030BD0000002C014030B5046A026A22F454
:102D5000805202624268C3690D6823F4E64343EA85
:102D600005238D6824F4005444EA0534064DA84236
:102D700004D14D6922F4804242EA85124260C36167
:102D800049680164046230BD002C014010B5036A3B
:102D9000046A24F001040462846924F0F00444EA23
:102DA000021423F00A020A438461026210BD10B5C6
:102DB000036A046A24F010040462846923F0A00307
:102DC00024F4704444EA023243EA01118261016250
:102DD00010BD000070B5044600680169E26821F486
:102DE0004051114301612169A068084361690843AA
:102DF0002168CA6841F20C639A430243CA602068A2
:102E00004169A26921F44071114341611E49206862
:102E1000884202D1FEF75EFD01E0FEF74BFD00EBBC
:102E2000C00101EB0012606864218000B2FBF0F386
:102E3000B3FBF1F36FF018067343B2FBF0F5B2FB8E
:102E4000F0F605EB8305322303EB0515B5FBF1F531
:102E5000B6FBF1F605F0F00505EB0615B2FBF0F652
:102E6000B2FBF0F0B0FBF1F06FF01802504306EB4C
:102E7000800003EB0010B0FBF1F0216800F00F00C0
:102E80002844886070BD0000003801402DE9F04101
:102E9000984617460E460446069D27E0681C25D036
:102EA0002DB1FEF70BFBA0EB0800A8421ED920684D
:102EB0000C3050E8001F21F4D07140E80012002AC5
:102EC000F5D12068143050E8001F21F0010140E8DE
:102ED0000012002AF5D1202084F8410084F8420035
:102EE000002084F840000320BDE8F08120680068DD
:102EF00036EA000004D00020B842CFD00020F3E72B
:102F00000120F9E7FEE700000FB4054B10B503A957
:102F1000044A029800F0FCF810BC5DF814FB0000B5
:102F2000213800089C03002037B514460846064B9C
:102F30006A46214600F0ECF804466946002000F09D
:102F40006AFC20463EBD0000173800080907090E3C
:102F5000002804DB00F1E02080F80014704700F046
:102F60000F0000F1E02080F8141D704702E008C84F
:102F7000121F08C1002AFAD170477047002001E0F3
:102F800001C1121F002AFBD1704700002DE9FF5F2D
:102F900082B00021DDE90430020DDDF840B00343CA
:102FA00018D044F61050A2F2FF3242431514119883
:102FB00001281FD0A5EB0B00401C5FEA000A4FF070
:102FC00000064E4FDFF83891B046504615D5CAF18D
:102FD000000413E0119801244AA3012801D16FEAEB
:102FE0000B010298119AC0E90031C0E9024206B013
:102FF000BDE8F09FCBF10000DFE704460021404A26
:10300000491842EB0450CDE9001012E0E00707D068
:1030100032463B4640464946FDF769FA80468946B6
:1030200032463B4610461946FDF761FA06460F4602
:103030006410002CEAD1DDE90401DDE90023BAF1D6
:10304000000F06DAFDF753FA42464B46FDF74FFAFA
:1030500005E0FDF7BEFA42464B46FDF7BAFA0446D4
:103060000E460022284BFDF781FB03D84FF0FF30BE
:10307000014607E00022254B20463146FDF790F936
:10308000FDF766FC102409E0002C0ADB0A2200236D
:10309000FDF74AF8039B30321A55641E50EA0102CC
:1030A000F2D1641C039AC4F111031444119A012A49
:1030B00003D0012208430DD10AE0084304D00020C8
:1030C0004FF0110B119072E7A3EB0B056D1E0DE095
:1030D0005B4504DD4FF0000205F1010504E003DA71
:1030E0004FF00002A5F10105002AECD002981199D9
:1030F000C0E90231C0E9004579E700000000144052
:103100000000F03F300000000000F0430000E03F0E
:103110002DE9FF4F95B09A46884606460025EEE118
:10312000252877D100242746F94A0121039400E09D
:10313000044316F8013F203B01FA03F01042F7D197
:1031400030782A2811D06FF02F033078A0F13002A8
:10315000092A16D8039A44F0020402EB820203EB18
:1031600042021044761C0390EFE758F8042B0392B8
:10317000002A03DA504244F40054039044F002045D
:10318000761C30782E2816D116F8010F44F004046E
:103190002A280DD06FF02F023078A0F13003092BD0
:1031A00009D807EB870302EB4303C718761CF3E744
:1031B00058F8047B761C30786C280FD006DC4C283D
:1031C00017D068280DD06A2814D104E0742810D0D4
:1031D0007A280FD10DE044F400140AE044F480147E
:1031E00001E044F440147278824202D104F5801464
:1031F000761C761C307866280BD013DC582877D0E4
:1032000009DC002875D04528F6D04628F4D0472898
:103210001AD193E118E0632835D0642879D0652865
:1032200012D18BE1702873D008DC6728F1D06928AF
:103230006FD06E280DD06F2806D1ACE073282CD04B
:10324000752874D0782853D05246179990476D1C32
:1032500054E1C4F30250022809D003280DD0D8F855
:10326000001004280DD00D6008F1040846E1D8F8DC
:103270000010EA17C1E90052F6E7D8F800100D80F7
:10328000F2E70D70F0E718F8041B8DF8001000202D
:103290008DF80100EB46012003E058F804BB4FF025
:1032A000FF3061074FF0000102D40DE009F1010188
:1032B0008946B9420FDA8145F8DB1BF8091000296D
:1032C000F4D108E009F1010189468142FADB1BF8DB
:1032D00009100029F6D103985346A0EB09072146AF
:1032E0003846179A00F080FA284400EB090507E0F9
:1032F00044E008E10DE01BF8010B52461799904796
:10330000B9F10109F7D2534621463846179AF2E03F
:1033100039E00A21C4F302524FF0000B0091022A57
:1033200006D058F8040BC117032A09D00AE023E09D
:1033300008F1070020F00702F2E80201904605E0DC
:1033400000B2C117042A01D140B2C117002906DA20
:103350000A460021404261EB02012D2202E02205D3
:1033600004D52B228DF80420012203E0E20701D0CE
:103370002022F7E7914657E00A2100E010214FF0A4
:10338000000B00910BE010214FF0000B44F00404FF
:103390000827009103E008204FF0000B0090C4F3D1
:1033A0000252022A05D058F8040B0021032A08D043
:1033B00008E008F1070020F00702F2E80201904659
:1033C00003E080B2042A00D1C0B24FF00009220706
:1033D0002AD53278702A07D0DDF800C08CF0100CA6
:1033E0005CEA0B0C05D00EE040228DF8042001228F
:1033F00008E050EA010306D030238DF804308DF840
:10340000052002229146009B83F0080353EA0B0338
:103410000AD150EA010201D1620705D530228DF8A8
:1034200004204FF001097F1E3278582A04D039A2B7
:103430000C920CAA02920BE03BA2F9E75B46009AC1
:10344000FCF772FE0C9B9B5C029A521E0292137058
:1034500050EA0102F2D1029804A9081A00F1200BE7
:10346000600702D524F4803400E001275F4502DDC7
:10347000A7EB0B0000E0002000EB0B01009003988D
:103480004944401A0390E00306D453462146179A54
:10349000039800F0A9F90544002706E001A8524668
:1034A000C05D179990476D1C7F1C4F45F6DBE0030C
:1034B0000CD553462146179A039800F095F9054418
:1034C00004E030205246179990476D1C0099481E21
:1034D00000900029F5DC08E0029802995246007835
:1034E000491C0291179990476D1CBBF10001ABF18B
:1034F000010BF1DC5BE100F065F90544761C3078E6
:1035000000287FF40DAE19B02846BDE8F08F00000A
:1035100009280100303132333435363738396162A9
:10352000636465660000000030313233343536376D
:10353000383941424344454600000000600700D44A
:10354000062708F1070020F00700F0E80223804674
:1035500003F0004C5FEA0C0001D097A009E02005C1
:1035600001D596A005E0E00701D095A001E0AFF2FB
:103570004C001390307823F0004365280CD006DC13
:10358000452809D046281DD047287FD13BE0662832
:1035900018D067287AD136E00021112F01DB1120E5
:1035A00000E0781CCDE9000104A90CA8FFF7EEFCAF
:1035B000DDE90D010C9A4FF0000B07F101091092A3
:1035C00000914EE04FF000400097CDE9011004A9B2
:1035D0000CA8FFF7DBFCDDE90D020C9B0F994FF007
:1035E000000B91461093009211B9791C00EB010970
:1035F000B7EB090003D4C0F1FF3B07F10109A9EBC8
:103600000700019042E0012F00DA01270021112F6D
:1036100001DD112000E03846CDE9000104A90CA825
:10362000FFF7B4FCDDE90D010C9A00914FF0000B9F
:10363000B946109221070FD4009A4A4503DA914601
:1036400001E0A9F10109B9F1010F05DD109AA9F115
:103650000101515C3029F4D0B84202DA10F1040FB4
:1036600003DA0121CDE9011010E0002803DC8344D6
:10367000A9EB000102E0411C494500DD8946A0EBB1
:103680000B00401C01904FF000400290200705D431
:103690000198484502DB4FF0FF30019000208DF883
:1036A0004B0002980DF14B07B0F1004F25D00220DE
:1036B0000C902B200D90029800280CDA40420290CA
:1036C0002D200D9007E00A210298FDF797F8303180
:1036D000029007F8011D0C99481E0C900029F2DC9D
:1036E00002980028EFD1791E0D980870307800F00C
:1036F000200040F0450007F8020D11A8C01BC01DB6
:1037000002901398007800B1012000EB09010198A4
:1037100001EBE071029801440398401A401E0390A7
:10372000E00306D453462146179A039800F05CF84C
:1037300005441398007818B15246179990476D1CAC
:10374000E00323D553462146179A039800F04CF81E
:1037500005441BE0BBF1000F07DB0098584504DD72
:103760001098179910F80B0001E017993020524675
:10377000904701980BF1010B401E05F101050190E6
:1037800004D12E205246179990476D1CB9F10001C3
:10379000A9F10109DEDC05E017F8010B5246179983
:1037A00090476D1C0299481E02900029F4DC534694
:1037B0002146179A03989EE62D0000002B0000007A
:1037C000200000002DE9F041044600251E46174662
:1037D000880404D405E039462020B0476D1C641EDF
:1037E000F9D52846BDE8F0812DE9F04104460025D1
:1037F0001E469046C80301D5302700E020278804E4
:1038000004D505E041463846B0476D1C641EF9D525
:103810002846BDE8F0810A68531C0B6010707047A1
:1038200013B54FF6FF73012269460248FEF7ACFD5F
:1038300000981CBDD404002010B5002821D0114BE5
:103840000022001F196803E0814203D80A46496834
:103850000029F9D152B11368841A9C4204D100683E
:1038600018441060104602E0506000E0186039B162
:1038700002680B1A934203D10B681A44026049682C
:10388000416010BDA00300201FB5FDF725FEFFF726
:1038900047F9FEF705FEFEF7EDFDFEF7C3FDFEF767
:1038A00007FFFEF7B7FEFEF763FEFEF7B3FFFEF776
:1038B0001DFFFEF741FF5C48FEF784FA04215A48D9
:1038C000FEF7B4FB0A2259495948FDF727FB58482F
:1038D000FDF75CF95748FEF75DFC00215548FEF7FF
:1038E0009BFCDFF85491DFF854A14FF0663B1421A4
:1038F0004E4800F0FFF84D48808AFCF7FEFE5C461B
:103900005A464B46FCF7F3FD00225346FCF761FE96
:103910000F46064600224A4BFCF7E9FD494D0022BE
:103920002B46FCF756FE0022474BFCF7DAFDFCF76E
:1039300035FFFCF707FF2246444BFCF731FD01221F
:10394000FCF7B6FE00222B46FCF743FEFCF726FFF1
:10395000FCF7F8FE3E4A3F4BFCF7C9FD3E4A3F4BA1
:10396000FCF71EFDFCF71AFF8046FCF7EBFE054650
:103970000C4630463946FCF711FFFCF7E3FE384EA3
:1039800096F9022096F90130CDE90232CDE90054D2
:1039900002460B4633A0FFF7B7FACDE900540222E6
:1039A00036A311460020FFF795F8FEF7ABFF002481
:1039B000347096F90100FCF792FE4146FCF70AFFCD
:1039C00003D21C480068446322E096F90200FCF729
:1039D00086FE4146FCF708FF04D21648C16800681D
:1039E000416315E0134CE068FCF782FE054696F94A
:1039F0000100FCF774FE4146FCF75CFC2149FCF732
:103A000091FC2946FCF75CFCFCF788FE21684863C2
:103A1000142206490648FDF781FA0A20FDF714FC36
:103A200030780028FDD062E78C040020A803002035
:103A3000D00300204404002066660A4000FEAF4028
:103A400000408F4000000840001071406626404052
:103A5000A4198BA6B3130240172B6A300D830F40B5
:103A600000000020566F6C742D54656D703A256609
:103A70002C25662C25642C25640A0000252D382E63
:103A8000316600000000A041F0B50B30154D20F06C
:103A900007010024144A0FE003688B420BD38B42CA
:103AA00005D95E1A43184768C3E9006700E0436818
:103AB000136002C004E0021D10680028ECD120460B
:103AC000002802D1286808B10020F0BD064A074846
:103AD0001060074A121A22F00702C0E900240120F0
:103AE0002860D7E7A4030020A0030020A409002039
:103AF000A00B00202DE9F84F0C1E06464CDDE0001F
:103B0000FFF7C2FF83460020641ECBE900044FF09C
:103B1000010800BFA8F101080BEBC8000090D0E934
:103B200000908246D1452FDA09EB0A0000EBD070F5
:103B300020F001004D46875B544600E06D1C36F8CE
:103B40001500B842FADB00E0641E36F81400B842F3
:103B5000FADCA54207DC06EB440106EB450000F069
:103B60001DF8641E6D1CA542E9DDA14504DA009A2A
:103B700008F10108C2E90094AA4505DD0BEBC80273
:103B800008F10108C2E9005AB8F1000FC2D1584645
:103B9000BDE8F84FFFF750BEBDE8F88F02880B88EC
:103BA00003800A8070470102020304050607080922
:103BB0000A0B0C0D0E0F101001020203040506077C
:103BC00008090A0B0C0D0E0F101000000000000079
:103BD00000000102030406070809000000000102BA
:103BE00003040000000000000000002F000000009F
:103BF0000700070000147F147F1400242A7F2A1274
:103C00000062640813230036495522500000050362
:103C1000000000001C224100000041221C00001492
:103C2000083E08140008083E0808000000A06000D4
:103C30000008080808080000606000000020100864
:103C40000402003E5149453E0000427F40000042D0
:103C500061514946002141454B31001814127F1033
:103C6000002745454539003C4A4949300001710962
:103C7000050300364949493600064949291E000016
:103C800036360000000056360000000814224100BD
:103C900000141414141400004122140800020151ED
:103CA000090600324959513E007C1211127C007FF6
:103CB00049494936003E41414122007F4141221C91
:103CC000007F49494941007F09090901003E4149F6
:103CD000497A007F0808087F0000417F41000020EA
:103CE00040413F01007F08142241007F4040404096
:103CF000007F020C027F007F0408107F003E4141DC
:103D0000413E007F09090906003E4151215E007FC6
:103D1000091929460046494949310001017F01013D
:103D2000003F4040403F001F2040201F003F4038E0
:103D3000403F00631408146300070870080700611F
:103D40005149454300007F41410000552A552A55FD
:103D5000000041417F000004020102040040404095
:103D60004040000001020400002054545478007FB9
:103D70004844443800384444442000384444487F90
:103D800000385454541800087E0901020018A4A4F5
:103D9000A47C007F080404780000447D40000040BB
:103DA00080847D00007F102844000000417F400097
:103DB000007C04180478007C08040478003844442B
:103DC000443800FC242424180018242418FC007C07
:103DD0000804040800485454542000043F44402080
:103DE000003C4040207C001C2040201C003C403017
:103DF000403C004428102844001CA0A0A07C0044A3
:103E000064544C44141414141414000000000000F2
:103E100000000000000000000000000000F80000AA
:103E20000000000000333000000000100C06100CF1
:103E30000600000000000000000040C07840C0788C
:103E40004000043F04043F040400007088FC083074
:103E50000000001820FF211E0000F008F000E0180C
:103E6000000000211C031E211E0000F008887000C5
:103E700000001E2123241927211010160E00000017
:103E800000000000000000000000000000E0180436
:103E90000200000000071820400000020418E000A3
:103EA00000000040201807000000404080F08040E3
:103EB00040000202010F01020200000000F00000B9
:103EC00000000101011F01010100000000000000CD
:103ED000000080B070000000000000000000000042
:103EE00000000001010101010101000000000000CB
:103EF0000000003030000000000000000000806082
:103F00001804006018060100000000E01008081006
:103F1000E000000F102020100F00001010F800002B
:103F200000000020203F20200000007008080888C2
:103F30007000003028242221300000300888884892
:103F400030000018202020110E000000C02010F8C2
:103F5000000000070424243F240000F80888880893
:103F600008000019212020110E0000E01088881898
:103F70000000000F112020110E0000380808C8387A
:103F800008000000003F000000000070880808885A
:103F90007000001C222121221C0000E010080810E3
:103FA000E0000000312222110F00000000C0C0001C
:103FB0000000000000303000000000000080000021
:103FC0000000000080600000000000008040201021
:103FD000080000010204081020004040404040401A
:103FE000400004040404040404000008102040807D
:103FF00000000020100804020100007048080808B2
:10400000F0000000003036010000C030C828E81081
:10401000E0000718272423140B000000C038E0003C
:104020000000203C23020227382008F88888887086
:104030000000203F202020110E00C0300808080892
:104040003800071820202010080008F80808081079
:10405000E000203F202020100F0008F88888E808A2
:104060001000203F20202320180008F88888E80846
:104070001000203F200003000000C030080808386E
:10408000000007182020221E020008F8080000087F
:10409000F808203F210101213F20000808F8080806
:1040A00000000020203F2020000000000808F80841
:1040B0000800C08080807F00000008F888C02818B1
:1040C0000800203F20012638200008F808000000E2
:1040D0000000203F20202020300008F8F800F8F8E9
:1040E0000800203F003F003F200008F830C00008D3
:1040F000F808203F200007183F00E01008080810CB
:10410000E0000F10202020100F0008F80808080811
:10411000F000203F210101010000E0100808081014
:10412000E0000F18242438504F0008F88888888849
:104130007000203F2000030C302000708808080821
:1041400038000038202121221C00180808F808082F
:1041500018000000203F2000000008F808000008B8
:10416000F808001F202020201F000878880000C8C1
:104170003808000007380E010000F80800F80008B1
:10418000F800033C0700073C0300081868808068BB
:10419000180820302C03032C30200838C800C838F9
:1041A00008000000203F2000000010080808C83860
:1041B00008002038262120201800000000FE0202FE
:1041C00002000000007F40404000000C30C00000B2
:1041D0000000000000010638C00000020202FE00DC
:1041E0000000004040407F00000000000402020286
:1041F00004000000000000000000000000000000BB
:1042000000008080808080808080000202040000A6
:10421000000000000000000000000000808080809E
:1042200000000019242222223F2008F8008080008C
:104230000000003F112020110E000000008080804F
:104240000000000E11202020110000000080808856
:10425000F800000E112020103F2000008080808098
:104260000000001F222222221300008080F0888894
:1042700088180020203F20200000000080808080DF
:104280008000006B94949493600008F80080808014
:104290000000203F210000203F200080989800006F
:1042A00000000020203F202000000000008098989F
:1042B000000000C08080807F000008F8000080803F
:1042C0008000203F24022D302000000808F8000064
:1042D00000000020203F202000008080808080801F
:1042E0008000203F20003F20003F808000808080B1
:1042F0000000203F210000203F20000080808080BF
:104300000000001F202020201F00808000808000EF
:10431000000080FFA12020110E000000008080809E
:104320008000000E112020A0FF808080800080800F
:10433000800020203F21200001000000808080803C
:1043400080000033242424241900008080E0808031
:1043500000000000001F202000008080000000807E
:104360008000001F202020103F20808080000080DF
:10437000808000010E3008060100808000800080EF
:1043800080800F300C030C300F0000808000808094
:1043900080000020312E0E312000808080000080BF
:1043A000808080818E70180601000080808080806F
:1043B00080000021302C2221300000000000807C91
:1043C000020200000000003F404000000000FF002B
:1043D000000000000000FF0000000002027C8000DE
:1043E00000000040403F0000000000060101020202
:1043F00004040000000000000000000000000000B5
:10440000000000000000000000003F40000000002D
:1044100000000000300040003000400000000900B3
:104420000BC03D000BC03D00090018C024407FE0D8
:10443000224031800000180024C01B000D80324053
:10444000018003801C4027401C8007400040100072
:1044500060000000000000000000000000000000FC
:104460001F80204040200000402020401F8000008E
:104470000000090006001F8006000900000004007B
:1044800004003F80040004000000001000600000F1
:104490000000000000000400040004000400040008
:1044A00000000000004000000000000000000020AC
:1044B00001C006003800400000001F80204020405E
:1044C00020401F800000000010403FC0004000005E
:1044D000000018C0214022402440184000001080F5
:1044E0002040244024401B80000002000D001100E9
:1044F0003FC0014000003C802440244024402380F1
:1045000000001F802440244034400380000030001D
:10451000200027C03800200000001B8024402440D9
:1045200024401B8000001C0022C0224022401F802B
:104530000000000000000840000000000000000033
:1045400000000460000000000000000004000A00F9
:1045500011002080404009000900090009000900FD
:10456000000000004040208011000A0004001800F4
:10457000200023402400180000001F802040274016
:1045800029401F400000004007C039000F0001C053
:10459000004020403FC0244024401B8000001F807A
:1045A0002040204020403080000020403FC020407C
:1045B00020401F80000020403FC024402E4030C0DB
:1045C000000020403FC024402E00300000000F00BB
:1045D0001080204022403380020020403FC0040071
:1045E00004003FC02040204020403FC020402040E9
:1045F00000000060202020203FC02000200020403C
:104600003FC024400B0030C0204020403FC020402D
:104610000040004000C03FC03C0003C03C003FC021
:10462000000020403FC00C4023003FC020001F80FE
:104630002040204020401F80000020403FC02440F8
:104640002400180000001F802140214020E01FA00E
:10465000000020403FC02440260019C0004018C080
:1046600024402440224031800000300020403FC0E0
:1046700020403000000020003F80004000403F808C
:10468000200020003E0001C0070038002000380054
:1046900007C03C0007C038000000204039C00600B9
:1046A00039C0204000002000384007C038402000BA
:1046B0000000304021C02640384020C000000000EB
:1046C00000007FE0402040200000000070000C004F
:1046D0000380004000000000402040207FE00000F8
:1046E000000000002000400020000000000000103A
:1046F000001000100010001000100000000040002A
:10470000000000000000000002800540054003C0DA
:10471000004020003FC0044004400380000000002F
:104720000380044004400640000000000380044071
:1047300024403FC000400000038005400540034086
:104740000000000004401FC024402440200000005E
:1047500002E0055005500650042020403FC00440B0
:10476000040003C000400000044027C000400000D7
:10477000000000100010041027E00000000020409E
:104780003FC00140070004C00440204020403FC01B
:1047900000400040000007C0040007C0040003C040
:1047A0000000044007C00440040003C000400000B3
:1047B00003800440044003800000041007F004500C
:1047C000044003800000000003800440045007F010
:1047D0000010044007C00240040004000000000074
:1047E00006400540054004C00000000004001F8092
:1047F000044000400000040007800040044007C05F
:1048000000400400070004C0018006000400060008
:1048100001C0070001C006000000044006C00100FE
:1048200006C0044000000410071004E001800600E8
:1048300004000000044005C00640044000000000E1
:10484000000004007BE040200000000000000000A9
:10485000FFF000000000000040207BE004000000AA
:104860000000400080004000200020004000FFF0D9
:1048700080108010801080108010801080108010B8
:1048800080108010FFF09F90A050A050A0509F90EB
:10489000FFF080109050BFD080508010FFF098D073
:1048A000A150A250A4509850FFF09090A050A45056
:1048B000A4509B90FFF082108D109110BFD08150BA
:1048C000FFF0BC90A450A450A450A390FFF09F9080
:1048D000A450A450B4508390FFF0B010A010A7D003
:1048E000B810A010FFF09B90A450A450A4509B902F
:1048F000FFF09C10A2D0A250A2509F90FFF0FFF0BA
:1049000080109050BFD08050801000002C490008CB
:1049100000000020A8030000A4090008A04A000825
:10492000A8030020F80B00007C2F00081113321E92
:1049300032018210B324F41BF010012AFF05021586
:10494000F01B0F04012AFF0502130F180940404015
:104950005F55555575041A5F0C091121080C11207B
:104960000F094989790909090F201F112FFE0242F9
:104970004ACA4A0304134202FE000E14FF40504C80
:104980004340404F50505C40FF1BF888012AFF0510
:104990000215F81B1F08012A7F200B109F80E23BA5
:1049A000808201000916E2A2928A86828080041821
:1049B00040807F172424A4FEA3221B22CCAA01142A
:1049C00015080601FF2B0104010511FF0202025820
:1049D00008101010FF109008C3021108080F1004EF
:1049E00044827F01808040432C10284681A0180912
:1049F0004040484848C8784F0605154848404000A0
:104A000009150312122222528A063C106080BA193C
:104A1000040B11C030FB1E404043407F061C7F4208
:104A20004106094FC02941080B1110D030FF30D08A
:104A3000121C10101F3D080402019E0D11010204FA
:104A400008211116FE222222FE0712FE828292A265
:104A50009E100880601F0242827F0F11FF402F10BE
:104A60002C438011000B1490884C57A42454548C70
:104A700084180801018042221A07441D423E0101A8
:104A80008AF9E1000D14E4242CB4252624B42C2446
:104A9000E404180AFF02011E1212121E4186011EB2
:04000005080000ED02
:00000001FF
